:1079000000D01F92CDB7DEB7F89411248FED98E028
:107910009EBF8DBFCDB7DEB784B714BE83FF18C03E
:107920004091EC085091ED086091EE087091EF08DD
:107930004F3E5E4B6D4A7E4D59F41092EC0810920A
:10794000ED081092EE081092EF088091EB08F4D247
:107950008093EB088FEE9EEBADEABEED8093EC08D2
:107960009093ED08A093EE08B093EF0811E0A0E02B
:10797000B1E0ECE4FFE702C005900D92A230B10740
:10798000D9F711E0A2E0B1E001C01D92A834B1071F
:10799000E1F78AB183608AB98BB18C7F8BB982E0C1
:1079A0008093C00088E18093C10086E08093C2008C
:1079B00080E18093C40084B1886284B92498229ABB
:1079C0001CBC80E58CBD11E01DBD8DB58EB5229A25
:1079D000219A80E991E028D12A9832D180E197E27A
:1079E00023D16FE784E043D12DD184E013D180E02F
:1079F00011D1082F25D10F3749F566E286E037D13E
:107A000063E08CE134D164E08DE131D160E787E05F
:107A10002ED16AE285E02BD161E083E028D163E0DA
:107A200081E025D11093460180E090E0ECD089837D
:107A300081E090E0E8D08A8382E090E0E4D08B831C
:107A4000BE016F5F7F4F8BE0FFD01ED188E1809336
:107A500060008EE08093600000E010E028E1A22E3C
:107A600038E0932E8824839445E0742E51E1652EEE
:107A700063E0B62EA9D1813471F4A6D1F82E49D293
:107A800082E8F816F9F091E8F91202C085E001C029
:107A900083E00BD1B5C0823411F484E103C0853496
:107AA00019F485E03CD2ACC0853541F48DD1082F66
:107AB00010E08AD1182B000F111FA1C0863521F4C8
:107AC00084E02DD280E0E5CF843609F063C07CD11C
:107AD0007BD1E82E79D1582EE6E48E1307C001152C
:107AE000F0E71F0718F4F801B7BEE895FE2C80E810
:107AF000C82EDD24D39468D1F60181936F01FA94E6
:107B0000F110F9CFEA94F12CFFE7EF1AFEEFFF0A2C
:107B100026E4521227C0011580E7180718F0F80173
:107B2000B7BEE895F6D107B600FCFDCFF801A0E896
:107B3000B1E08C9111962C91119790E0922B0C0151
:107B400087BEE895112432961296A11522E0B2075D
:107B500081F7F80177BEE89507B600FCFDCF67BE58
:107B6000E8954EC0F5E45F124BC0D3D1C801E0E800
:107B7000F1E0EE1609F444C0A89541919C012F5FF5
:107B80003F4FF999FECF92BD81BD40BDFA9AF99A57
:107B9000C901EFCF843721F517D116D1D82E14D1D2
:107BA000F82EB7D126E4F21208C0F80185918F01B2
:107BB0007CD0DA94D110F9CF23C085E4F81220C02C
:107BC000C801CD2CCC2049F07C01EFEFEE1AFE0A63
:107BD0001AD06BD0CA94C701F5CF0D0D111D10C07E
:107BE000853739F496D18EE160D085E95ED08FE09B
:107BF00050CF813521F4A09260009092600089D12D
:107C000080E153D037CFF999FECF92BD81BDF89A6C
:107C100080B508958EBD8FEF81500DB407FC02C072
:107C20008111FACF8EB50895019748F00000000049
:107C300000000000000000000000A895F5CF0895A6
:107C4000299A0895299808951F93CF93DF93182FA9
:107C5000EB01F8DF812F8062DDDF8881DBDF898146
:107C6000D9DF8A81D7DFDF91CF911F91E9CFCF9301
:107C7000DF93D82FC62FE6DF8D2F8062CBDF8C2FCE
:107C8000C9DFDF91CF91DCCF8091450181110CC01C
:107C90006FE7EDDF62E082E0EADF84E190E0C4DFDD
:107CA0002A9A81E0809345010895EF92FF920F9305
:107CB0001F93CF93DF9390914701992309F477C0E5
:107CC000E091440191E09E0F90934401F0E0EC5D5F
:107CD000FE4F8083803121F08091010198136DC0A7
:107CE000D0E8FF24F394D15009F458C080E49FE118
:107CF0009BDFC091440180914501882331F080E9E8
:107D000091E092DF2A98F09245016EE780E0AFDFC4
:107D100061E082E0ACDF96DF81EE7CDF91DF92DF15
:107D200080EA78DF04E211E0CC2331F0F8018191A0
:107D30008F0170DFC150F8CF83DF84E190E074DF02
:107D40002A9A80DF8FEF66DFC82F7ADF80E991E023
:107D50006BDF2A9800E117E2FC2FF072EF2EC5FFCF
:107D600002C0C0FF0EC0C4FD0CC00150110949F093
:107D700084E190E059DF66DF8FEF4CDFC82F60DFD2
:107D8000EBCF60E387E073DF80914501882319F032
:107D90001092450179DFEE2009F4A5CF81E08093B0
:107DA0004401809124018F5F8093240106C090914B
:107DB000C00095FFFCCF8093C600DF91CF911F914B
:107DC0000F91FF90EF900895FF920F931F93CF9321
:107DD000DF93D1E085E0F82E809146019091C000BC
:107DE00097FF08C08091C00084FD01C0A8958091D4
:107DF000C60075C0882391F3809123018823B9F0D0
:107E0000A8958091230181115BC060E487E02FDF9A
:107E100019DF80E6FFDE80E0FDDEC82F11DFC093B2
:107E2000230110DF81E6F6DE03E011E00AC00ADF7D
:107E300087E1F0DE80E0EEDEC82F02DFC0FFE0CF9A
:107E4000CBCFCC2339F080E0E5DEF80181938F01C0
:107E5000C150F7CFF5DED093020180914701811127
:107E60001CC0809123018430B0F063E071E080E1B8
:107E7000EBDE63E071E08AE0E7DE8091060180934B
:107E8000010180912301845080932301F09202012B
:107E9000D093470102C010922301809123018823CF
:107EA00009F49ACF9091030120910001921303C02D
:107EB0001092230191CF9093000181508093230170
:107EC000E091020181E08E0F80930201F0E0ED5F0E
:107ED000FE4F808190912301915090932301DF9177
:107EE000CF911F910F91FF900895809145018823B4
:107EF00021F080E991E098DE2A986CE780E0B7DE17
:107F00001092450188E18093600088E080936000D2
:107F1000FFCF5ADF803209F0E8DF84E1C6CECF938D
:107F2000C82F52DFC150E9F7CF91F3CFE0E6F0E080
:107F300098E1908380830895E0E6F0E098E19083F3
:0C7F400098E29083282EEE27FF2709947A
:027F4C00FF2014
:027FFE0000057C
:040000030000790080
:00000001FF
